:100000000C9466020C949E020C949E020C949E0228
:100010000C949E020C949E020C949E020C949E02E0
:100020000C949E020C949E020C949E020C94AB19AC
:100030000C9467190C947A1A0C949E020C949E02EC
:100040000C949E020C949E020C949E020C94561AE0
:100050000C949E020C949E020C949E020C949E02A0
:100060000C949E020C949E020C949E020C949E0290
:100070000C949E0205010980A101850319012AB78C
:1000800000150126B700950175108100C0050C0907
:1000900001A101850419012AA002150126A00295DB
:1000A0000175108100C005010906A101850605073B
:1000B00019E029E71500250195087501810205075A
:1000C000190029EF1500250195F075018102050839
:1000D0001901290595057501910295017503910195
:1000E000C00660FF0961A1010962150026FF0095A5
:1000F00020750881020963150026FF009520750808
:100100009102C005010906A101050719E029E715BB
:100110000025019508750181029501750881010589
:1001200007190029FF150026FF00950675088100B4
:10013000050819012905150025019505750191028C
:10014000950175039101C00000000000000000004F
:10015000000000000000000000000000000000009F
:1001600000000000000000000000007E0F00D4FF2F
:10017000FFFFC70000007800000000000000002A18
:100180002B2800000000000000000000000000001C
:10019000000029000000002C1E34202122243426D7
:1001A00027252E362D3738271E1F202122232425D0
:1001B000263333362E37381F0405060708090A0B85
:1001C0000C0D0E0F101112131415161718191A1BF7
:1001D0001C1D2F3130232D350405060708090A0B95
:1001E0000C0D0E0F101112131415161718191A1BD7
:1001F0001C1D2F3130354C643214783C1E1E140AFD
:1002000005000101010101010101010202020202D6
:1002100002020202030303030303030304040404AE
:100220000404040505050505060606060607070776
:10023000070708080808090909090A0A0A0B0B0B2D
:100240000C0C0C0D0D0D0E0E0E0F0F0F10101111CA
:10025000111212131314141515161617171818194E
:10026000191A1A1B1B1C1D1D1E1E1F2020212222B5
:10027000232424252626272829292A2B2C2D2D2EF8
:100280002F30313232333435363738393A3B3C3D12
:100290003E3F404142434445464748494A4C4D4E03
:1002A0004F50515354555658595A5B5D5E5F6162C9
:1002B00064656668696B6C6D6F7072737577787A58
:1002C0007B7D7E8082838587888A8C8E8F919395B3
:1002D00096989A9C9EA0A2A3A5A7A9ABADAFB1B3D7
:1002E000B5B7BABCBEC0C2C4C6C9CBCDCFD1D4D6B7
:1002F000D8DBDDDFE2E4E7E9EBEEF0F3F5F8FAFD59
:10030000FF2223252628292A2C2D2F30323335365B
:10031000383A3B3D3E4042434547494A4C4E505196
:10032000535557595A5C5E6062646668696B6D6FBD
:1003300071737577797B7D7F81838587898A8C8EC0
:1003400090929496989A9C9E9FA1A3A5A7A8AAACC8
:10035000AEAFB1B3B4B6B8B9BBBCBEBFC1C2C3C502
:10036000C6C7C9CACBCCCDCED0D1D2D2D3D4D5D6A4
:10037000D7D7D8D9D9DADADBDBDBDCDCDCDCDCDDD7
:10038000DDDDDDDCDCDCDCDCDBDBDBDADAD9D9D8BB
:10039000D7D7D6D5D4D3D2D2D1D0CECDCCCBCAC953
:1003A000C7C6C5C3C2C1BFBEBCBBB9B8B6B4B3B182
:1003B000AFAEACAAA8A7A5A3A19F9E9C9A9896941D
:1003C00092908E8C8A89878583817F7D7B797775F2
:1003D00073716F6D6B6968666462605E5C5A5957D1
:1003E000555351504E4C4A4947454342403E3D3B90
:1003F0003A3836353332302F2D2C2A29282625231A
:10040000221D001B00217802522378035224780415
:100410005225780552267806522778075228780008
:100420005209025B00030100A0FA09040000010365
:100430000101000921110100012244000705810387
:100440000800010904010002030000000921110154
:100450000001222200070582032000010705030393
:10046000200001090402000103000000092111011C
:100470000001226D00070584032000011201000223
:1004800000000008485000000100010200011603AE
:1004900032006B004E0061006D0065006C0065006D
:1004A000730073000000200332002D004B00650034
:1004B00079002D00450063006F0073007900730020
:1004C000740065006D0000000403090411241FBEC0
:1004D000CFEFD4E0DEBFCDBF04B603FE18C08091DD
:1004E000500290915102A0915202B0915302873074
:1004F000904BA740B04B59F4109250021092510209
:100500001092520210925302E0E0F8E3099522E0C3
:10051000A2E6B1E001C01D92A035B207E1F711E0FB
:10052000A0E0B1E0ECEEF0E402C005900D92A2363E
:10053000B107D9F70E94A11A0C940D200C94000069
:10054000A82FB62F2091480240910F02241302C019
:1005500080E0089530E0C90167E070E00E94FC1E71
:10056000FC01E05FFD4F8181B81306C08081A813B4
:1005700003C085818111EDCF2F5F3F4F2770E6CFFC
:100580002091E4003091E50095E6A9012091EC006E
:10059000822F817020FF06C08091E80080FF06C096
:1005A00080E008952091E80022FD1AC08091FD01AD
:1005B000882389F0853089F08091EB0085FD0FC09C
:1005C0002091E4003091E50042175307F9F2915071
:1005D000E1F684E0089582E0089583E0089581E0E3
:1005E00008958091FF0187FF13C08091E80082FF8A
:1005F00006C08091E8008B778093E80004C080916A
:10060000FD018111F2CF08958091FD018823D9F376
:100610008091E80080FFF8CF8091E8008E77ECCFE2
:10062000982F9093E900242F762F50E0891731F00E
:100630007091EC002091ED005091F00021FD07C079
:100640009F5F953071F78093E90081E008953091C4
:10065000EB003E7F3093EB003091ED003D7F309317
:10066000ED003091EB0031603093EB007093EC00C3
:100670002093ED005093F0002091EE0027FDE0CF95
:1006800080E00895FC018091050290910602861792
:100690009707A0F06115710529F49091E8009E7705
:1006A0009093E80090E06115710551F4911108C034
:1006B0008091E80082FF32C080E00895BC01F2CF53
:1006C0008091FD018823B1F18530B1F18091E8007E
:1006D00083FD2EC08091E80082FDEACF8091E80082
:1006E00080FFE1CF2091F20030E06115710519F033
:1006F0002830310558F091E02830310509F090E0BC
:100700002091E8002E772093E800CDCF819180934F
:10071000F100615071092F5F3F4FE7CF8091FD01DC
:10072000882341F0853041F08091E80083FFC0CFFD
:1007300081E0089582E0089583E008950895089582
:100740008091DA0108952FB7F89480914902909131
:100750004A02A0914B02B0914C022FBF0895209104
:1007600009012223C9F02091D70127FF15C0E62FE8
:10077000E695E695E695EE31D8F4E80FF92FF11DF0
:10078000677021E030E001C0220F6A95EAF72095FA
:100790008281282322830895FC01329608962191B4
:1007A000621303C0DF0111971C92E817F907B9F72C
:1007B0000895209109012223C1F02091D70127FF3C
:1007C00014C0E62FE695E695E695EE31F8F4E80FCD
:1007D000F92FF11D677021E030E001C0220F6A950A
:1007E000EAF78281822B82830895FC0132962FEFF3
:1007F00030E04191641751F02F3F19F4411101C0CD
:10080000232F3F5F3630A9F72F3F09F40895820F59
:10081000911D27FD9A95FC0162830895A3E0B0E045
:10082000E4E1F4E00C943E1F2091D4013091D50115
:1008300028173907A1F09093D5018093D401E09156
:10084000D201F091D301309751F024E029839B83AA
:100850008A830680F781E02DCE01019609952396C3
:10086000E2E00C945A1FA3E0B0E0E9E3F4E00C945A
:100870003E1F2091D0013091D10128173907A1F0F6
:100880009093D1018093D001E091D201F091D301F6
:10089000309751F023E029839B838A830680F78178
:1008A000E02DCE01019609952396E2E00C945A1FA3
:1008B000E091D201F091D301309729F00190F081BD
:1008C000E02D0995089580E00895FA01811101C095
:1008D000FB01099508958091C801982F9E7F29F406
:1008E000817082608093C80108958E31E8F3817031
:1008F0008C61F8CFB0E0A0E0E0E8F4E00C94361FA3
:100900008901E42FF0E0EF5FFD4F61110FC094917A
:10091000392FE92FD8011196EC9311979C931296D9
:100920003C93CDB7DEB7EAE00C94521FC82FD0E05D
:10093000E62EF12CE4914E2FAE2EB12CCE0166E0C6
:1009400070E00E94FC1ECC24CA94D12CB6010E94F7
:100950000D1FDB01CC0FDD1FCB0165E570E00E94B0
:10096000FC1EC81BD90B8C2F880FC80FC6018E190F
:100970009F09B5010E94FC1E392FD0E0CE01B701BE
:100980000E94FC1E692F70E0C601861B970BB50103
:100990000E94FC1E292FC6018C1B9D0BB7010E94D3
:1009A000FC1E692F70E0C601861B970BB5010E94E3
:1009B000FC1E892FA230B10589F040F4109709F48C
:1009C000A9CF119779F0932F322FA4CFA430B1057E
:1009D00061F078F0169709F49DCFF5CF9E2FE32FA5
:1009E000382F98CF9E2FE22F95CF932F3E2FE82FB1
:1009F00091CFE32F342F922F8DCF80E00895F8947C
:100A0000E82FE295EF70F0E031A1282F2F7081E000
:100A100090E001C0880F2A95EAF7982F90959323CC
:100A200091A392A1892B82A3789408959091D701E4
:100A300092FF10C041E0282F2471243009F040E0DB
:100A400031E0282F2871283009F030E0431711F0E9
:100A50002CE0822793FF10C041E0282F247124311D
:100A600009F040E031E0282F2871283109F030E00A
:100A7000431711F02CE082273091D80130FF10C0CD
:100A800051E0282F2171213009F050E041E0282F5A
:100A90002871283009F040E0541711F029E082272E
:100AA00031FF10C041E0282F2171213109F040E0D1
:100AB00031E0282F2871283109F030E0431711F078
:100AC00029E0822794FD877E089582389105B9F147
:100AD000B0F48133910509F47DC048F48932910561
:100AE00009F46DC08A32910509F47BC008958533FD
:100AF000910509F45FC08933910509F10895833E9A
:100B00009105D9F138F4803E910529F1823E910595
:100B100079F10895863E9105D9F1873E910509F452
:100B20003EC0843E910541F52091D80121FF24C0AB
:100B30008091D70184FD19C087EE90E0089520913F
:100B4000D701237009F05AC02091D80123FF14C0A7
:100B500089E290E008952091D70120FD38C03091BE
:100B6000D80130FF09C024FF43C090E080E0089521
:100B70002091D70122FDF7CF08952091D70122FDC2
:100B80003AC03091D80130FD39C024FFF5CFEDCF08
:100B90002091D70123FFF0CF24FDE7CFCDCF2091C7
:100BA000D70123FD2EC03091D80131FFEECF84EE66
:100BB00090E008952091D70125FFDECFC9CF209185
:100BC000D70125FD21C02091D80123FFD5CF89E38E
:100BD00090E0D2CF2091D70126FFCECF8AE290E0DD
:100BE00008952091D70126FFC7CF81E390E00895B3
:100BF00083EE90E0089582EE90E0089580EE90E01C
:100C0000089586EE90E0089585E390E008951F939F
:100C1000CF93DF930E946505EC01C11580E5D807ED
:100C2000F0F5C11580E4D80708F09EC0C03ED1059C
:100C300020F5CD3CD10508F084C0C83AD10578F440
:100C4000C53AD10508F075C0C130D10519F120971A
:100C500009F1C430D105F0F4D0E0C0E01BC0C33CC2
:100C6000D105D0F7C85AD0E0CC0FDD1FC35FDE4FEF
:100C70000990D881C02DD4640DC0C11580E2D80779
:100C800008F0D7C0C11581E0D80708F05CC0C83EA5
:100C9000D10510F7CE01DF91CF911F910895C03695
:100CA00082E5D80728F5C03482E5D80708F06DC082
:100CB000C03282E5D80708F061C0C11582E5D807C7
:100CC00008F49DC02C2F2695269530E085E0220F54
:100CD000331F8A95E1F78C2F8370C1E0D0E002C00A
:100CE000CC0FDD1F8A95E2F7C22BD32BDD68D2CF64
:100CF000C03A82E5D80760F4C03882E5D80708F426
:100D00005BC0CF71D0E0DC2FCC27C46FD06AC2CFDC
:100D1000C03C82E5D80708F466C0C03E82E5D8072B
:100D200008F09ACFDC2FCC27CC27DF71C06FD06AB8
:100D3000B1CFC55AD0E0C65FDE4FC881D0E0D064E5
:100D4000A9CFD065A7CF8D2F0E941605182FCE01F1
:100D500099270E946505C12FD0E0DC2FCC27CC2736
:100D6000DF71C82BD92B96CFCE0199270E9465053C
:100D7000CC27DF70C82BD92BD06A8CCFCF71D0E0B5
:100D8000DC2FCC27C16FD06A85CF2C2F26952695D6
:100D9000277030E0B5E0220F331FBA95E1F78C2FB2
:100DA0008370C1E0D0E002C0CC0FDD1F8A95E2F76E
:100DB000C22BD32BDC686ECF2C2F2695269527705F
:100DC00030E0A5E0220F331FAA95E1F78C2F837046
:100DD000C1E0D0E002C0CC0FDD1F8A95E2F7C22B44
:100DE000D32BDA6857CF8C2F8F710E941605C82F2E
:100DF000D0E0DC2FCC27CC27DF71D0624BCF8C2FFB
:100E00008F710E94160555E0D695C7955A95E1F762
:100E1000CF70D0E0DC2FCC27282F30E084FF05C036
:100E200044E0220F331F4A95E1F7C22BD32BD06940
:100E300031CF8D2F8F710E941605182FCE01992763
:100E40000E946505C12FD0E0DC2FCC27CC27DF71B5
:100E5000C82BD92BD2CF80959091AB01982390933A
:100E6000AB0108958091480290910F02981301C040
:100E700008958F5F8770FACF91111DC08230C8F43A
:100E8000E6E8F1E050E040E0219130E0082E02C0B9
:100E9000369527950A94E2F721703327042E01C076
:100EA000220F0A94EAF7922B4F5F5F4F43305105B0
:100EB00059F7892F089590E0FCCF911122C082301C
:100EC00000F591E001C0990F8A95EAF7292FE6E82D
:100ED000F1E050E040E070E03191DF011197CB018B
:100EE000042E02C0969587950A94E2F78170819549
:100EF0008327822383278C934F5F5F4F43305105B5
:100F000059F708958093B40108959091B40121E0B8
:100F100030E0F90101C0EE0F8A95EAF7D90102C06D
:100F2000AA0FBB1F6A95E2F7EA2B01C0220F4A9570
:100F3000EAF7892F8E23E81305C0292B822F0E9400
:100F40008207089520952923F9CF21E030E001C0E0
:100F5000220F8A95EAF720958091B40182230E949E
:100F60008207089590918901809589238093890152
:100F7000282F277069F4891759F09091D80192FFB2
:100F800007C08695869586950E94A50710928901CF
:100F9000089521E030E001C0220F8A95EAF78091A0
:100FA000B401822B0E94820708958093AC010895BA
:100FB0000F931F93CF93DF938B01EA019091FD0173
:100FC000943061F58093E9008FEF9091E8008150B3
:100FD00095FD06C095ED9A95F1F700008111F5CFCA
:100FE0008091E80085FF1AC00E94C002811111C0E3
:100FF0008091E80085FD06C08091E8008E7780939F
:10100000E800F2CFF80181918F018093F1002197E0
:1010100079F78091E8008E778093E800DF91CF9197
:101020001F910F91089543E050E0BC0184E00E94BD
:10103000D8070895CF93DF93EC01809109018111C6
:1010400011C048E050E0BE0181E00E94D80780E274
:10105000FE01ABEDB1E001900D928A95E1F7DF91D1
:10106000CF9108958091D70187FF05C040E284E0C9
:1010700050E0BE01EACF48E081E0FACF8091C8019C
:1010800080FD0CC01092C3011092C2011092C401E5
:101090001092C6011092C5011092C701239A35B172
:1010A000377F25B128604FB7F89482EC91E0FC01BE
:1010B0005191CF0168E025B9000000C057FF35B954
:1010C000550F000000C000C000C035B900C06A95CF
:1010D00091F7F1E0883C9F0751F74FBF8FE594E00F
:1010E0000197F1F700C0000008950F931F93CF936D
:1010F000DF93EC010091CB011091CA0122EC31E0A9
:10110000402F612F8C810E947A048C8125EC31E084
:10111000402F612F81580E947A040E943E089A81D4
:101120008C8190FF07C08F5F8C83DF91CF911F91DF
:101130000F9108958150F8CF9091C80190FF0EC093
:101140008093C3016093C2014093C4018093C601A0
:101150006093C5014093C7010E943E080895A3E033
:10116000B0E0E5EBF8E00C943E1F9091C80190FFD1
:101170000AC09E012F5F3F4F0E947A044B81698114
:101180008A810E949C082396E2E00C945A1FCF9318
:10119000DF93EC01E8ECF1E0438162818C810E94F5
:1011A000AF088C818F5F8C83DF91CF910895CF93AF
:1011B000DF93EC01EC81F0E0EF5FFC4F4491E8EC51
:1011C000F1E0628181810E94AF088C818F5F8C8306
:1011D000DF91CF910895CF93DF93C9E4D0E060E031
:1011E000CE010E94D91F2196C11584E0D807B9F716
:1011F000DF91CF9108951F93CF93DF93122F883003
:10120000C8F4611117C04230A8F4C82FD0E0CC0F49
:10121000DD1FCC0FDD1F50E0440F551FC40FD51F3D
:10122000632FCE0189960E94D91F612FCE018A9625
:101230000E94D91FDF91CF911F9108950F931F93A3
:10124000CF9301E014E0C0E0F8012591349140E033
:1012500060E08C2F0E94FB08F801329625913491B2
:1012600041E060E08C2F0E94FB080C5F1F4FCF5FB6
:10127000C83051F7CF911F910F910895CF93C82F88
:101280006FEF811163E285E290E00E94D91F6FEF5A
:10129000C11161E186E290E00E94D91F6FEFC11198
:1012A00066E187E290E00E94D91FCF91089580E027
:1012B0000E943E0960E088E290E00E94D91F0E94EF
:1012C0001E090E94EB0881E00E943E0908950F93D9
:1012D0001F93CF93DF93883018F5611121C04230FE
:1012E000F8F4082F10E0000F111F000F111F50E03D
:1012F000440F551F040F151FC80189960E94B51F82
:10130000C82FD0E0DC2FCC27C8018A960E94B51FD9
:101310009E01282BC901DF91CF911F910F91089554
:1013200090E080E0F8CF462F711108C0623030F4B1
:10133000883020F460E00E946709089590E080E022
:101340000895CF92DF92FF920F931F93CF93DF9375
:101350006C010091B4018091AC01082BC7E0D0E092
:1013600010E0FC2EC8010C2E02C0959587950A94BA
:10137000E2F780FD0CC02197A0F7F12C8F2DDF91B3
:10138000CF911F910F91FF90DF90CF900895B601FC
:101390008C2F0E9493090E940706019761F3EECFFC
:1013A000CF93DF93EC010E94A109BE010E94930933
:1013B0000E940706DF91CF910895FC01248122232A
:1013C000C1F0808191810E94D00992959F709630E2
:1013D00091F058F4925F9F70923058F4803F19F06A
:1013E00030F4883E30F481E008959A5FF4CF843F72
:1013F000D1F380E00895883EB0F3813FD1F7F3CF79
:10140000A6E0B0E0E6E0FAE00C943D1F49835A8381
:1014100049815A819923A1F0222391F0CA010E94A7
:10142000A109182F682F89819A810E945D0769811F
:101430007A81812F0E9493092696E3E00C94591F2C
:10144000CA010E943C07182FF2CF85E290E00E946B
:10145000B51F833289F486E290E00E94B51F813186
:1014600059F487E290E00E94B51F91E0863109F0BF
:1014700090E0892F8170089580E0FCCFB0E0A0E07B
:10148000E4E4FAE00C94341F49015A016B017C0139
:101490000E946B048401A4016A2D7B2D88E090E0FA
:1014A0000E94EB1F94014A2D5B2DB601C70100E29B
:1014B0000E94801F622F84E290E00E94D91FCDB766
:1014C000DEB7ECE00C94501FA3E0B0E0EAE6FAE0EF
:1014D0000C943A1F082FF62E142FE22E8091C8018B
:1014E00080FF2DC0E82FE695F0E0ED5BFE4F908188
:1014F0009093C0018E7F823031F59E012F5F3F4F68
:10150000802F0E947A044B8169818A810E949C0805
:101510000093C901F092CA011093CB01EE2079F03B
:101520002091C8016091CC017091CD01302F4F2DD9
:10153000512F8091CE019091CF010E943E0A2396B7
:10154000E6E00C94561F923019F41091CB01E0CFD5
:10155000963019F40091C901DBCF9930C9F6FACF62
:10156000E8ECF1E0438128E0421B08F440E021E090
:10157000628181810E94640A0895E8ECF1E0438170
:1015800028E0420F08F44FEF21E0628181810E9440
:10159000640A0895E8ECF1E0628128E0621B08F437
:1015A00060E021E0438181810E94640A0895E8ECB3
:1015B000F1E0628128E0620F08F46FEF21E04381DF
:1015C00081810E94640A0895E8ECF1E0818121E0C4
:1015D0004381628188500E94640A0895E8ECF1E03A
:1015E000818121E043816281885F0E94640A0895BD
:1015F0008091CC01882319F081508093CC012091F7
:10160000C8013091C9014091CA015091CB0160914C
:10161000CC017091CD018091CE019091CF010E94BB
:101620003E0A08958091CC01833018F48F5F809337
:10163000CC012091C8013091C9014091CA0150915B
:10164000CB016091CC017091CD018091CE01909140
:10165000CF010E943E0A08959091C80190FF34C0C6
:101660009170811132C092609093C801662391F00D
:101670002091C8013091C9014091CA015091CB011C
:101680006091CC017091CD018091CE019091CF01FC
:101690000E943E0A6091C801669570E041E050E00A
:1016A00088E091E00E949B1F892BB1F01092C1014C
:1016B00081E08093BD0120E04091CB016091CA019F
:1016C0008091C9010E94640A08958F3010F09C61D6
:1016D000CBCF880F982BC8CF81E08093C1010E94A7
:1016E000A3039093BB018093BA01E2CF8091C8011C
:1016F0008695815009F48EE061E00E942C0B0895DC
:101700008091C80186958F5F8F3008F081E061E09D
:101710000E942C0B08959091C80190FF08C09695E7
:10172000981728F0961718F40E94800B089561E02E
:101730000E942C0B0895E8ECF1E08DE0808311828B
:101740008FEF82838383148275812DE030E04FEF29
:101750005FEF60E0868197810E943E0A0895909134
:10176000D80192FB222720F9281779F080FB92F903
:101770009093D8016091D7017091D80184E090E0F6
:101780000E94F71F82E00E94B207089590E080E077
:101790000E94C31F863E9E4F19F40E94250A089599
:1017A00080E008958091AB0190910E02892B809387
:1017B00064019091AA019923A1F0892B809364017F
:1017C000809109018823E1F18091D70187FF38C01A
:1017D0008EE1E6E6F1E090E08150A0F591111092E3
:1017E000AA0140E250E06AE871E084E691E00E94DC
:1017F000A81F892B21F180E2E4E6F1E0AAE8B1E03C
:1018000001900D928A95E1F7E091D201F091D30118
:101810003097A9F080910901882359F08091D70170
:1018200087FF07C0809164018093650186E0809303
:1018300064010280F381E02D84E691E0099508952A
:1018400086E0C7CF2191222339F29F5FC5CF88233D
:1018500021F00E942B070E94D20B0895882339F0B3
:101860009091AB01982B9093AB010E94D20B0895FD
:10187000882351F19CEF980F913A40F4682F84E649
:1018800091E00E94AF030E94D20B089590E2980F5E
:10189000983050F4877091E001C0990F8A95EAF76B
:1018A000892F0E942B07EFCF9BE5980F933028F4E8
:1018B00090E080E00E9433040895885A8B3120F430
:1018C00090E080E00E940E040895CF93C82F8823F3
:1018D000D9F18CEF8C0F813AC8F5809109018823EA
:1018E00011F18091D70187FF1EC0EC2FE695E69598
:1018F000E695F0E0EC59FE4F828190E04C2F477066
:1019000021E030E002C0220F331F4A95E2F7822324
:101910009323892B91F06C2F84E691E00E94AF0312
:101920000E94D20B0AC0E6E6F1E08CE691E021913C
:10193000C21789F38E179F07D1F76C2F84E691E0C9
:101940000E94D9030E94D20BCF91089580E28C0FA0
:10195000883068F4C77021E030E001C0220FCA95DA
:10196000EAF78091AB01822B8093AB01EBCFEBE5E3
:10197000EC0FE33040F4F0E0E65FFE4F808190E052
:101980000E943304E1CFC85ACB31F0F6EC2FF0E0DF
:10199000EE0FFF1FE35FFE4F808191810E940E04D6
:1019A000D3CF1F93CF93DF93182FD0E0C0E08933BC
:1019B00011F4C0E5D0E0812F0E94650C209739F426
:1019C000812F0E94380CDF91CF911F9108958FE9EC
:1019D0009FE00197F1F700C000002197EFCF0F9330
:1019E0001F93CF93DF93C62FD42F022FFC01858145
:1019F0008823A9F060934F020E94A30390934E02A4
:101A000080934D02C77081E001C0880FCA95EAF744
:101A10000E942E0CDF91CF911F910F91089580911C
:101A20004F0268133DC020914D0230914E024FB7D6
:101A3000F8948091490290914A02A0914B02B09192
:101A40004C024FBF821B930B883C910548F510E276
:101A50001D0F6D17B9F080E2860F883040F4C77013
:101A600081E001C0880FCA95EAF70E94270C183060
:101A700048F481E09D2F977001C0880F9A95EAF78E
:101A80000E942E0C802F0E94D10C183018F6D770AF
:101A900081E001C0880FDA95EAF70E94270CBACFDF
:101AA000C77081E001C0880FCA95EAF7F6CFCF93DF
:101AB000F8943D9A4598789400C086B190E026E06D
:101AC000959587952A95E1F780959095817099274E
:101AD000379936C0C2E0C82B85E60E94FF0480EA31
:101AE0008A95F1F78091B3018C1761F1C093B3012E
:101AF00081E08093B1010E94A3039093B001809391
:101B0000AF012091AF013091B0014FB7F8948091AF
:101B1000490290914A02A0914B02B0914C024FBFF2
:101B2000821B930B039790F08091B3019091B901C0
:101B3000981779F08093B90181E01092B10107C044
:101B4000C0E0C9CF8091B1018111DBCF80E0CF919E
:101B5000089580E0F2CFA8E0B0E0E1EBFDE00C9466
:101B60003E1F66EE7EEF90E080E00E94F71F60E08F
:101B700082E090E00E94D91F60E083E090E00E9444
:101B8000D91F1092AC0160E074E184E090E00E9403
:101B9000F71F60E086E090E00E94D91F6FEF87E0BA
:101BA00090E00E94D91F40E050E0BA0188E090E048
:101BB0000E94EB1F60E084E290E00E94D91F60E089
:101BC00087E190E00E94D91F60E08CE090E00E94E5
:101BD000D91F60E08DE090E00E94D91F19821A821F
:101BE0001B821C821D821E821F82188648E050E0E4
:101BF00068E170E0CE0101960E94C91F40E050E00C
:101C0000BA0180E290E00E94EB1F80E00E943E0952
:101C10000E94570940E050E0BA018FE090E00E9436
:101C2000EB1F40E050E0BA0183E190E00E94EB1F1F
:101C30002896E2E00C945A1F1092AB0180910901A2
:101C4000E6E6F1E08823B1F08091D70187FF12C06A
:101C50008EE1DF011D928A95E9F790E080E00E9415
:101C6000330490E080E00E940E0410920E020E9465
:101C7000D20B089586E0EDCFAAE2B0E0E2E4FEE008
:101C80000C943D1F8FEF91E02091F100DC012D932A
:101C9000CD01B2E087309B07B9F780910002833015
:101CA00009F470C0B8F4813009F447C0823009F4F7
:101CB000B1C08091E80083FF88C28091FF019091BC
:101CC00000029A3008F081C2E92FF0E0E15FFF4D99
:101CD0000C94211F8A3009F48CC08B3009F46FC03A
:101CE000893039F78091FF01813219F78091030221
:101CF00090910402009711F00297D9F68091E800C4
:101D0000877F8093E8008091E80082FF36C0809151
:101D1000F200823031F48091F100813011F0863090
:101D200021F48091F1008093DA018091E8008B77B3
:101D30008093E8000E94F102BCCF8091FF01813ABC
:101D400009F0B7CF8091E800877F8093E800809109
:101D5000030290910402892B61F460E28BED91E023
:101D600070E00E9442038091E8008B778093E80046
:101D7000A0CF60E090E080E0F3CF8091FD01811181
:101D8000C2CF97CF8091FF01813A09F092CF809125
:101D9000030290910402892B09F08BCF8091E80017
:101DA000877F8093E8008091E80080FFFCCF8091DE
:101DB00009018093F1008091E8008E77B9CF80917E
:101DC000FF01813209F075CF8091030290910402E6
:101DD000892B09F06ECF8091E800877F8093E8001F
:101DE0000E94F10280910102809309010E941C0E61
:101DF00060CF8091FF01813209F05BCF8091E800D4
:101E0000877F8093E8000E94F10280910202809314
:101E1000D9014FCF8091FF01813A09F04ACF8091DB
:101E2000E800877F8093E8008091E80080FFFCCF86
:101E30008091D901BECF803899F0823809F0C5C1B0
:101E4000809103028F70853008F0BFC18093E90054
:101E50008091EB0085FB882780F91092E90006C08D
:101E60008091FB019091FC01911182609091E800BA
:101E7000977F9093E8008093F1001092F100809199
:101E8000E8008E779EC1882309F48CC1823009F066
:101E90009CC18091010281118FC1809103028F70DA
:101EA0002FEF280F243008F090C18093E900209193
:101EB000EB0020FF81C1933031F48091EB00806210
:101EC0008093EB0079C19091EB0090619093EB00CF
:101ED00021E030E001C0220F8A95EAF72093EA0062
:101EE0001092EA008091EB008860EACF81116DC109
:101EF000109101021F778091E3008078812B8093FD
:101F0000E3008091E800877F8093E8000E94F1025F
:101F10008091E80080FFFCCF8091E300806880938F
:101F2000E30082E0111183E08093FD014EC18058EF
:101F3000823008F04AC120910102309102022C3D0A
:101F4000E3E03E07A1F583E08A838AE289834FB705
:101F5000F894DE01139620E03EE051E2E32FF0E03A
:101F600050935700E49120FF03C0E295EF703F5F6C
:101F7000EF708E2F90E0EA30C0F0C7968D939D935E
:101F80002F5F243159F74FBF8091E800877F8093FE
:101F9000E8006AE270E0CE0101960E94420380915F
:101FA000E8008B778093E80010C1C096E7CF80915E
:101FB000030290910402432F55274330510509F441
:101FC0004AC078F54130510509F47AC08BE590E0BC
:101FD000E1E2F4E04230510509F0F7C02091E80059
:101FE000277F2093E8002091050230910602821796
:101FF000930708F49C0140E02115310509F065C004
:10200000411163C08091E80082FDC9CF8091FD013C
:10201000882329F2853019F28091E80083FFF2CFFE
:10202000BECF4132510509F43CC04232510509F09E
:10203000CCC08330910508F0C8C0FC01EE0FFF1F33
:10204000EB5AFE4F0190F081E02D8E5A9E4FDC013D
:102050008C9190E01AC0332721303105D1F0211541
:10206000310561F02230310509F0AFC0EEE8F4E04F
:10207000E4918E2F90E0EEE8F4E007C0E8ECF4E0A5
:10208000E4918E2F90E0E8ECF4E0009709F49DC015
:10209000A5CFE6EAF4E0E4918E2F90E0E6EAF4E0E2
:1020A000F4CF8330910508F090C0880F991FFC0190
:1020B000E55AFE4F0190F081E02D89E090E08ECF4F
:1020C00082E190E0ECE7F4E089CF8091FD01882384
:1020D00009F465CF853009F462CF8091E80083FD73
:1020E0005ECF8091E80082FD8DCF8091E80080FF77
:1020F00083CF8091F20090E02115310519F08830EE
:10210000910550F041E0089709F040E08091E80027
:102110008E778093E80070CF44914093F100319620
:10212000215031090196E8CF803809F04EC08091E6
:10213000E800877F8093E8008091FE018093F100A2
:102140009ECE811142C0109101021230F0F58091B3
:10215000E800877F8093E8001093FE010E94F1025F
:10216000112311F084E005C08091E30087FDFACFD0
:1021700081E08093FD0142E061EC81E00E94100368
:1021800042E261EC84E00E94100342E261EC82E0F2
:102190000E94100342E260EC83E00E9410038091F1
:1021A000FD0113C080910102813079F481E0933008
:1021B00009F080E08093FC011092E9008091E80032
:1021C000877F8093E8000E94F1028091E80083FFFE
:1021D0000AC08091E800877F8093E8008091EB003F
:1021E00080628093EB00AA96E3E00C94591F0E9452
:1021F0001C0E2FEF84E39CE0215080409040E1F7DB
:1022000000C0000088E19CE00FB6F894A895809388
:1022100060000FBE90936000FFCFA8E0B0E0E3E164
:10222000F1E10C94311F8C01DC0114968C91149710
:10223000882309F4B8C021E04C9111965C91119764
:1022400012966C91129713967C91139715969C9108
:102250000E94000A7C01F8018581882309F43CC1B1
:10226000C70197578038910508F09CC5FFE0FE151F
:1022700008F489C08FEF93E00E94B51F811183C0DD
:1022800059E4A52EB12CE11048C0FE01339686E03A
:10229000DF011D928A95E9F77501BFEFEB1AFB0A82
:1022A000C5010E94B51F89831A82882309F46BC077
:1022B000813009F07CC06501E2E0CE0ED11CC7017F
:1022C0000E94B51F8A83882309F45DC09FEF980F91
:1022D000933088F5F3E0AF0EB11CC6010E94B51F24
:1022E0008B83882309F44FC01C82CE0101967C01A8
:1022F000D7012C91222381F2213009F098C0119648
:102300009C91119712968C91913009F052C0B2E0D5
:10231000EB0EF11C0E94D10C53C0A11424E0B206B4
:1023200091F1C5010E94B51F811101C0EA943FEFF0
:10233000A31AB30AA8CF56018430B9F642E0E42EBE
:10234000F12C56012FEFA21AB20AC6010E94B51F46
:10235000E1E0F0E0EC0FFD1FEE0DFF1D8083882310
:1023600091F08C3741F4E2E0F0E0EC0FFD1FEE0D50
:10237000FF1D1082BACF3FEFE31AF30A650167E051
:10238000E616F104F1F680918901877061F0D801B9
:1023900015968C91882339F08091D80182FF03C073
:1023A00082E00E94B2072896EFE00C944D1F57017F
:1023B0009CCF923049F4E2E0EE0EF11C0E94650CD5
:1023C000FFEFEF1AFF0A94CF933031F4F2E0EF0EF3
:1023D000F11C0E94380CF4CF943021F02FEFE21A58
:1023E000F20AEECF32E0E30EF11C50E040E0D701FC
:1023F0001196F701D180682F6053770B9B016A30EB
:10240000710550F041505109D8F28FE99FE00197D2
:10241000F1F700C00000F6CFCA016AE070E00E9448
:10242000FC1EA901480F591F8D2D7D01E0CFE22F21
:10243000F0E0E958FE4F5490822F86958695869558
:1024400090E0FC01E959FE4F64902770712C022E38
:1024500002C0759467940A94E2F7A1E06A22772497
:10246000FC01E95AFE4F8490912C022E02C09594F3
:1024700087940A94E2F7B1E08B229924FC01E95B8E
:10248000FE4FC490D12C02C0D594C7942A95E2F790
:10249000E1E0CE22DD246114710419F081EE0E9486
:1024A000650C8114910419F086EE0E94650C852D4F
:1024B0000E94D10C8114910419F086EE0E94380C10
:1024C0006114710419F081EE0E94380CC114D1041A
:1024D00009F476CF8CE21ECFF701E851FC47E730D4
:1024E000F10508F04BC4E75EFF4D0C94211F26E276
:1024F00041EE61EEC8010E94EF0C45CF27E245EEA8
:1025000065EEF8CF26E241EE60EEF4CF27E245EE2D
:1025100064EEF0CF26E241EE62EEECCF27E245EE2C
:1025200066EEE8CF28E241E0EBCF8091D7018160F1
:102530008093D70195C08091D80188608093D8019D
:102540008FC08091D7018260F3CF8091D7018460E2
:10255000EFCF8091D7018860EBCF8091D801816067
:10256000EDCF8091D8018260E9CF8091D701806161
:10257000DFCF8091D7018062DBCF8091D70180646B
:10258000D7CF0E941C0E8091D7018068D1CF809157
:10259000D7018C60CDCF8091D8018360CFCF80915F
:1025A000D7018E7FC5CF8091D801877FC7CF80911B
:1025B000D7018D7FBDCF8091D7018B7FB9CF80911F
:1025C000D701877FB5CF8091D8018E7FB7CF80911B
:1025D000D8018D7FB3CF8091D7018F7EA9CF809115
:1025E000D7018F7DA5CF8091D7018F7BA1CF0E948E
:1025F0001C0E8091D7018F779BCF8091D701837F6D
:1026000097CF8091D8018C7F99CF8091D70182FBA1
:10261000992790F921E0922790FB82F990FB83F9AA
:1026200087CF8091D801982F909591708E7F892BBC
:1026300090FB81F983CF9091D701892F8F7B96FFF3
:10264000806476CF0E941C0E9091D701892F97FB52
:1026500087F980586DCF61E08EE090E00E94D91F2D
:102660006091D7017091D80184E090E00E94F71F3B
:102670000E941C0E88CE60E0EFCF9091D701892F89
:102680008F7E94FF806154CF9091D701892F8E7FE8
:1026900090FF81604DCF9091D801892F877F93FF64
:1026A00088604CCF8091840169E2811165E384E602
:1026B00091E00E94AF035FC327E7E2162CE7F20622
:1026C00009F028C381E00E94C90743E062E081E08D
:1026D0000E94850758CE8091C80180FF19C0282F1D
:1026E0002E7F2093C8013091C9014091CA015091B9
:1026F000CB016091CC017091CD018091CE01909180
:10270000CF010E943E0A1092C1010E943E083BCEBA
:1027100081608093C80161E086950E942C0B33CEC6
:1027200046E75BE060E87BE00E9465042CCE40E871
:102730005BE066E77BE0F8CF44EE5AE06EEE7AE0CD
:10274000F3CF4EEE5AE064EE7AE0EECF4AEC5AE078
:1027500067ED7AE0E9CF47ED5AE06AEC7AE0E4CF42
:1027600040EB5AE06DEB7AE0DFCF4DEB5AE060EBE7
:102770007AE0DACF48EF5AE062E17BE0D5CF42E180
:102780005BE068EF7AE0D0CF61E081E0C6CF65E042
:1027900082E00E948B0BF7CD68E086E0FACF6EE016
:1027A00089E0F7CF37E7E3163CE7F30609F457C0B3
:1027B00068E7E6166CE7F60609F455C0F80185816E
:1027C000E080F180882309F4A6C0C7010E94A10916
:1027D000D82E682FC7010E945D07B7018D2D0E947A
:1027E00093090E9407067C01882ED8011596AC90AB
:1027F000159716969C9092943FE0932280918901C0
:102800008770F1F0CA2CAA20E1F08F2D807F8034F0
:1028100051F080E28E0D883098F0911004C08F2D19
:10282000807E803269F08091D80182FF09C082E009
:102830000E94B207809189018770CC24C3948111D2
:10284000C12CBF2CB2942FE0B222BBE0BB1508F420
:10285000CAC0EB2DF0E0E05EFF4D0C94211F81E03B
:102860000E94A50732CF82E0FBCFBBE5EB16BCE7A9
:10287000FB0609F44EC0ECE5EE16ECE7FE0609F4A3
:102880003EC0FAE5EF16FCE7FF0609F097CF81E0BE
:102890003DC00E941C0E2FEF34E36CE0215030400D
:1028A0006040E1F700C0000081E08093E00080E23A
:1028B0008093D8001092C9008FE19EE40197F1F750
:1028C00000C0000087E090EBDC0180935002909301
:1028D0005102A0935202B093530288E19CE00FB6DC
:1028E000F894A895809360000FBE90936000FFCF8E
:1028F0006FEF7FEF90E080E00E94F71F25C280918C
:10290000D80182FB882780F991E089270E94AF0BCC
:1029100055CF80E0FBCFC7010E943C07D82E5DCF8A
:10292000EF2DEF70DE2E8F2D807F19F0D29490EF77
:10293000D922AA20B9F0DD2069F080E28E0D88301E
:1029400010F0811009C08091AB01D82AD092AB0160
:102950000E94D20B8E2D45C080910E02D82AD092B3
:102960000E02F6CF8E2D0E94380CDD20E1F180E2C0
:102970008E0D883010F0811004C08D2D0E942B0721
:1029800006C0D09480910E02D822D0920E020E94EE
:10299000D20B29C0FF2DFF70DF2E8F2D807F80325C
:1029A00019F0D29480EFD822882059F021E08216C5
:1029B00009F47AC0AA2009F486C0992009F448C015
:1029C000C9CF8091D80182FD3FC0AA20B9F1DD2096
:1029D00039F08091AB01D82AD092AB010E94D20B82
:1029E00080E00E94650C6B2D6850770B6430710598
:1029F00010F40E945804CC20B1F08091890180FD30
:102A000012C0D80115961C928695869586950E94CF
:102A1000C907C8010E940D1180918901869586958C
:102A200086950E94A50720E0F801408151816281CE
:102A30007381848195810E94000AB5CC80E00E9458
:102A4000380CDD2081F299CFAA20A1F0911004C0AA
:102A50008D2D0E942E0CC7CF31E09312C4CF8091F0
:102A6000AA019D2D9823D91609F4BDCFD82AD0925A
:102A7000AA01B9CF9110B7CF8D2D0E94270C90914C
:102A8000AA018D2D892329F08D2D8095892380938E
:102A9000AA01809185019D2D982309F4A4CFD0949B
:102AA000D822D09285019FCFAA2029F065E0691530
:102AB00008F499CFCDCF74E0791508F494CF8D2D1B
:102AC0000E94270C90CF9920D1F389E3881209C086
:102AD0009FEFA7EEB3E09150A040B040E1F700C0F7
:102AE00000008E2D0E94380C7ECF8F2D8695869506
:102AF000837061F0813009F076CFC7019370A11027
:102B000002C080E090E00E940E046DCFC701937078
:102B1000A11002C080E090E00E94330464CF8F2DAA
:102B2000837091F5A1105FCF4E2D42954695477069
:102B3000440F440F8E2D8F70042E01C0880F0A940D
:102B4000EAF72E2D2071E4FE07C02FE030E001C02F
:102B5000220F4A95EAF720953F2D3695369533702A
:102B6000323069F050F44091AC01313029F0822BC1
:102B700084230E94D50737CF842B822BFACF282BB2
:102B80008091AC018227F5CF8695AA2011F08F2D78
:102B90008170882309F427CF4E2D429546954770C2
:102BA000440F440F8E2D8F70042E01C0880F0A949D
:102BB000EAF72E2D2071E4FE07C02FE030E001C0BF
:102BC000220F4A95EAF720953F2D369536953370BA
:102BD000323069F050F44091B401313029F0822B49
:102BE00084230E948207FFCE842B822BFACF282BCE
:102BF0008091B4018227F5CFEF2DEF70FE2EAA2031
:102C000029F08E2F0E94C9078E2D23CF8E2D0E9472
:102C1000270C8F2D0E94A507E6CE8E2DF2EF8F1682
:102C2000B1F1F81570F020EF8216D1F031EF831674
:102C300091F0AA2009F45EC091108CCE8F2D8F7177
:102C40002AC063EF861651F174EF8712F2CF80919C
:102C5000D80182FD2FC08F2D8F71AA20D9F21BC001
:102C6000AA2081F084E0891508F4BDCE2F2D2F71A4
:102C700081E090E001C0880F2A95EAF79091B401B5
:102C80008927AFCF95E0991508F4ADCEEFCF8F2D02
:102C90008F71A110BFCF0E94C907A5CE80E0AA20E6
:102CA00009F49FCF9F2D9F7181E001C0880F9A95F5
:102CB000EAF797CFAA2099F0AF2DAF71FA2E8A2F9D
:102CC0000E94C9078091D80182FF07C08F2D880F0D
:102CD000880F880F8360809389018F2DDCCF81E07E
:102CE0000E94B207B1E0B91508F07DCE82E00E94E3
:102CF000B20779CE992059F0893309F0F2CEEFEF7F
:102D0000F7EE23E0E150F0402040E1F7E8CE8F2DD0
:102D10008F7180CF82E0F8E7EF16FCE7FF0609F439
:102D2000D2CC73E0E7167CE7F70609F4E1CD08F0B2
:102D30009CCDE1149CE7F90609F4ABCDA1E0EA16BD
:102D4000ACE7FA0609F03ACD0E94F71026E1E21648
:102D50002CE7F20609F0B0CC8091AB018A7A91E0C1
:102D600009F490E09093840169E2811165E384E6BF
:102D700091E00E94D9030E94D20B05CB36E1E31605
:102D80003CE7F30609F48ECC8091AB018272F70127
:102D9000E052F847E531F10508F004CDE45DFF4D60
:102DA0000C94211FF701E851FC47E730F10508F4C6
:102DB0009ACB10924F02C7019057839738F684E060
:102DC00090E00E94C31F9093D8018093D701F70130
:102DD000E150F047E232F10508F0A7CBEF5BFF4D81
:102DE0000C94211FCF93DF9380910D02807F09F017
:102DF0004FC080910C02882309F44AC020914802F8
:102E000040910F02A0910802B0910702C0910902FF
:102E1000D0910A024217E1F130E0C90167E070E0A9
:102E20000E94FC1E805F9D4FFC018481882399F1E4
:102E3000C90167E070E00E94FC1EFC01E05FFD4FED
:102E400081818A1328C080818B1325C085818111DF
:102E500022C0828193818C1B9D0B883C9105D8F404
:102E600080910D028F70806180930D02C90167E02F
:102E700070E00E94FC1EFC01EA5EFD4F90819F7095
:102E80009061908387E092E00E940D110E943207CA
:102E9000DF91CF9108952F5F3F4F2770BBCFA4E103
:102EA000B0E0E5E5F7E10C94341F8C0186E0F80111
:102EB000DE011F9601900D928A95E1F7F801848159
:102EC000E58097E0A92E92E0B92E90910B02911126
:102ED00028C0882319F1EE20F1F0C8010E94DD0915
:102EE000F82E8823C1F087E0F801D50101900D92FA
:102EF0008A95E1F780910B02813031F480910702CD
:102F0000909108020E94D0090E94F2168F2D6496BB
:102F1000ECE00C94501FC8010E940D11FF24F394A3
:102F2000F5CFD080C18082809380F0900C022091F8
:102F3000090230910A02A401421B530BFF2009F43D
:102F4000D9C0483C510508F092C08823F9F290910D
:102F5000080280910D02282F207F09F056C0C91267
:102F600014C090910702D91210C0E11048C08F70B0
:102F7000806180930D0287E092E00E940D118091A4
:102F80000D02F8018683F12CC1CFE11038C06C2D01
:102F90008D2D0E94A0026C2D8D2D0E94A002E82E86
:102FA0008111F1CFDF86C88A8F8598890E94D00968
:102FB000292F22952F70243058F49F70223088F0EA
:102FC000992399F0F8019681907F79F4FE2C9ECF99
:102FD0002A5F2F70223068F0C8010E940D11EF2C7B
:102FE000F5CF992311F0882389F3805E883070F340
:102FF000F3CF803F58F3815F833070F7E7CF809144
:103000000D02816080930D02BECFC91207C090915E
:103010000702D91203C0EE2009F48DC0C8010E9436
:10302000DD09882309F477CFEE2009F474CF80916D
:103030000D02803288F02091070230910802398712
:1030400028879B868A8690910B029C871D868E8797
:10305000CE0108960E940D1187E0F801A7E0B2E0CA
:1030600001900D928A95E1F70E94F21657CF909148
:103070000D02292F207F51F487E092E00E940D116C
:1030800087E0F50111928A95E9F77DCF882309F44D
:103090003DCF809108028C1110C080910702D81298
:1030A0000CC0E1100AC09683C8010E940D1187E090
:1030B000F50111928A95E9F729CFC8010E94DD092F
:1030C000882309F428CFEE2009F425CF80910D0242
:1030D000803210F220910702309108023A8329834E
:1030E0009C828B8290910B029D831E828F83CE01E6
:1030F0000196B0CF483C5105D0F6882309F40ECF95
:10310000FE2CEE2009F407CF809108028C1120C01C
:1031100080910702D8121CC080910D0280FD0FC063
:10312000982F907F61F08683903F31F0982F907FA9
:10313000905F8F70892B8683C8010E940D1187E0F4
:10314000F801A7E0B2E001900D928A95E1F7DECE9A
:10315000C8010E94DD0981117FCF80910D0281603D
:1031600080930D02C8010E940D11D0CEABE1B0E0FA
:10317000ECEBF8E10C943C1F4E8B5F8B688F798FE2
:103180008A8F9B8F192F911110920E021D8A86E053
:10319000FE017696DE011F9601900D928A95E1F769
:1031A0000A8D002341F021E04F85588969897A8989
:1031B000C8010E94000A0B8B1C8B87E0FE013F9622
:1031C000DE01189601900D928A95E1F7CE010896DE
:1031D0000E944F1781112BC087E0FE013896DE0157
:1031E000119601900D928A95E1F78C858823F9F06C
:1031F00080910F0290E09C012F5F3F4F2770332793
:103200004091480242171306E1F067E070E00E9427
:10321000FC1EDC01A05FBD4F97E0FE0131960190DE
:103220000D929A95E1F720930F020E943207809148
:10323000480290910F02891312C06B96E4E00C943F
:10324000581F0E941C0E10920F021092480287E035
:10325000E7E0F2E0DF011D928A95E9F7E8CF90E020
:1032600067E070E00E94FC1E805F9D4F0E944F1738
:10327000882319F38091480290E00196877099277E
:1032800080934802D4CFA6E0B0E0E9E4F9E10C94E1
:103290003C1F0E94A3038C018091AD019091AE016F
:1032A0008017910781F019821A820E94A303682F68
:1032B00049815A81792F80E090E00E94B6181093DE
:1032C000AE010093AD012696E4E00C94581F1F92C6
:1032D0000F920FB60F9211242F933F934F935F934A
:1032E0006F937F938F939F93AF93BF93CF93DF930E
:1032F000EF93FF93D091E900DF708091EC00C82F2D
:10330000C17080FDC0E81092E9008091F000877FD5
:103310008093F00078940E943C0E1092E900809116
:10332000F00088608093F000CD2BCF70C093E9004F
:10333000FF91EF91DF91CF91BF91AF919F918F91CD
:103340007F916F915F914F913F912F910F900FBEA1
:103350000F901F9018951F920F920FB60F92112485
:103360002F933F934F935F936F937F938F939F938D
:10337000AF93BF93EF93FF938091E10082FF09C069
:103380008091E20082FF05C08091E1008B7F8093F5
:10339000E1008091E10080FF17C08091E20080FF92
:1033A00013C08091E2008E7F8093E2008091E20062
:1033B00080618093E2008091D80080628093D80081
:1033C00019BC85E08093FD018091E10084FF2BC052
:1033D0008091E20084FF27C084E089BD86E089BD3A
:1033E00089B5982F917080FFFBCF8091D8008F7D99
:1033F0008093D8008091E1008F7E8093E1008091DE
:10340000E2008F7E8093E2008091E20081608093F1
:10341000E2008091FE01882309F441C084E080939A
:10342000FD018091FD018091E10083FF27C0809123
:10343000E20083FF23C08091E100877F8093E10059
:1034400082E08093FD011092FE018091E1008E7F69
:103450008093E1008091E2008E7F8093E200809172
:10346000E20080618093E20042E060E080E00E9440
:1034700010038091F00088608093F000FF91EF913D
:10348000BF91AF919F918F917F916F915F914F917C
:103490003F912F910F900FBE0F901F901895809124
:1034A000E30087FD93E09093FD01BBCF78941F92DA
:1034B0001FB61F9211248F939F93AF93BF93809158
:1034C000490290914A02A0914B02B0914C020196A0
:1034D000A11DB11D8093490290934A02A0934B0213
:1034E000B0934C02BF91AF919F918F911F901FBEDF
:1034F0001F9018951F921FB61F9211248F939F93B0
:10350000AF93BF938091D601811113C0809149027E
:1035100090914A02A0914B02B0914C024196A11D9C
:10352000B11D8093490290934A02A0934B02B0933D
:103530004C02BF91AF919F918F911F901FBE1F9022
:103540001895CDB7DEB7A6970FB6F894DEBF0FBEBD
:10355000CDBF84B7877F84BF0FB6F894A8958091BC
:103560006000886180936000109260000FBE80E868
:1035700090E00FB6F89480936100909361000FBEC5
:103580008DEF94E090936301809362011092E200CA
:103590001092E1008091E00081608093E0008091D2
:1035A000D8008F778093D80019BC80916300816028
:1035B000809363001092B201809163008E7F8093AC
:1035C000630081E08093B2011092E2001092E1006A
:1035D0008091D8008F778093D8008091D800806840
:1035E0008093D8008091D8008F7D8093D80084E0AC
:1035F00089BD86E089BD89B5282F2170622E80FFA4
:10360000FACF1092FD011092FE011092FC0110926F
:10361000FB0142E060E080E00E9410038091E10045
:103620008E7F8093E1008091E20081608093E200D0
:103630008091E20088608093E2008091E0008E7FBC
:103640008093E0008091E20084608093E2007894AF
:103650008091FD018823A1F01091E9001F709091E5
:10366000EC00892F817090FD80E8182B1092E90002
:103670008091E80083FD0E943C0E1F701093E900CA
:1036800082E084BD93E095BD9AEF97BD80936E0074
:103690000E94250A811102C00E94570985E60E94F6
:1036A000FF0486E60E94FF0487E60E94FF04109252
:1036B000B9011092B3010E94C60B811102C00E9491
:1036C000AB0D82E090E00E94B51F8093B60184E0CC
:1036D00090E00E94C31F9093D8018093D7010E946D
:1036E000570D8FEB9DE50197F1F700C000000E9498
:1036F000570D8091B90180FF03C081E00E94C90786
:1037000083E090E00E94B51F0E94D5078091B5012B
:10371000811172C00E94C60B811104C00E94AB0DC2
:103720000E949B0B88E090E00E94BD1F4B015C0152
:1037300084E290E00E94B51F282F30E040E050E086
:1037400060E070E080E090E000E20E94651F2829C0
:1037500039294A295B292093C8013093C901409334
:10376000CA015093CB016093CC017093CD0180933B
:10377000CE019093CF012E7F81F50E949B0B88E0B4
:1037800090E00E94BD1F6B017C0184E290E00E94EA
:10379000B51F282F30E040E050E060E070E080E0AE
:1037A00090E00E94651FB22FA32FF42FE52F970101
:1037B0008601BC29A12BFE29E32BB093C801A0935D
:1037C000C901F093CA01E093CB016093CC017093DF
:1037D000CD018093CE019093CF010E946B04109293
:1037E000C1018091C80180FF04C060E086950E94FD
:1037F0002C0B81E08093B5018091D7018068809384
:10380000D7016091D7017091D80184E090E00E94C7
:10381000F71F80E091E09093D3018093D20148E1BB
:10382000C42ED12C50E4752E64E0A62E8091FD01AB
:1038300016E0853009F4B4C00E94570D8091B7019D
:103840001091B9018113B6C00E9443198091C10142
:103850008823D1F18091C001E091C801E695E81B71
:10386000E093BC01823009F0D6C0F0E0E350FE4F97
:10387000E4910E2F10E037EDE32E38E0F32E809127
:10388000BD01882361F01092BD010E94A3039093B3
:10389000BB018093BA011092BF011092BE010E9439
:1038A000A303E091BA01F091BB018E1B9F0B8F3FE8
:1038B0009F4750F40E0F1F1F1093BB010093BA01D6
:1038C0008AEB91E0F70109950E9458049091B801A4
:1038D000891769F08093B8018FB7F8944091490235
:1038E00050914A0260914B0270914C028FBF8091BF
:1038F000FD01843009F09ACF83E08093E900809144
:10390000E80082FF93CF8091E80090E085FF06C039
:103910000E94C002882309F4A0C091E08091E800D1
:103920008B778093E800992309F480CF8981EFEFAA
:10393000E80FE33108F0B8C0F0E0ED59FF4D0C940A
:10394000211F8091FD01843009F11092D6010FB63C
:10395000F894A895C09260000FBE7092600083B783
:10396000817F846083BF83B7816083BF78948895AB
:1039700083B78E7F83BF0FB6F894A89580916000BF
:10398000886180936000109260000FBE8091FC01FE
:10399000882331F00E94570D8091B90181110DC229
:1039A0008091FD01853009F4CCCF0E941C0E0E944D
:1039B000580442CFF82EF126062DE12C9924939439
:1039C0008F2D8023A1F0E9A21AA20E94A3039CA339
:1039D0008BA39DA291E0812F802309F490E09EA308
:1039E00049A15AA16BA17CA18DA10E94B618000F1C
:1039F00091E0E9120EC01093B7018FB7F89440918F
:103A0000490250914A0260914B0270914C028FBF63
:103A10001DCFE62CD5CF863059F4F0E0E650FE4FAE
:103A2000E4910E2F10E027ECE22E28E0F22E27CFB3
:103A3000893061F4E695F0E0E950FE4FE4910E2FF5
:103A400010E095E7E92E98E0F92E19CF00ED17E088
:103A50008EE9E82E83E0F82E12CF00E210E0CE01CE
:103A600001967C018091E80085FD0AC08091E80004
:103A70008B778093E8000E94C002882399F34DCF92
:103A80008091F100F70181937F010150110951F7F5
:103A900044CF1A828CE08B8324C08A81823009F45F
:103AA000A2C128F4813061F08FEF89831AC083307E
:103AB00009F18430C9F71B821C821D821E8211C04D
:103AC0002FB7F8946091490270914A0280914B029D
:103AD00090914C022FBF0E94271F6B837C838D83A4
:103AE0009E8340E250E0BE016F5F7F4F82E00E9404
:103AF000D8079CCE2B81822F90E0FE013496892B33
:103B000081F78091B901819381E090E0253EB9F77A
:103B1000E8CF8A81823081F0853031F68091C8010A
:103B200080FF15C08091C8018E7F8093C8011092DC
:103B3000C1010E943E08D5CF6B817C818D819E8121
:103B40000E94271F88E290E00E94D91FCACF81609F
:103B50008093C80160E086950E942C0BC2CF4C81F7
:103B60006B818A810E9467099827892798279E83FD
:103B70008D83B7CF2D813E813227232732274C8179
:103B80006B818A810E94FB08ACCF0E941E09A9CFDD
:103B90009A81923009F088CF8830E1F1893009F4B8
:103BA00065C08B81823011F1B0F4813009F099CF7A
:103BB0008C8190E06FEF70E00E94FC1E6FEF70E070
:103BC0000E940D1F462F20E06091CA018091C9011B
:103BD0000E94640A86CF8330C9F0843009F081CF17
:103BE00020E04091CB016D818C81F2CF8C818823C4
:103BF00009F498CF8091C80181608093C80160E08A
:103C000086950E942C0B60E08C81A6CF8C818093DE
:103C1000CC0167CF8B818230E9F080F4813009F0EC
:103C200060CF8091CB0190E06FEF70E00E94FC1EAE
:103C30006FEF70E00E940D1F6C8353CF833099F0BB
:103C4000843009F04ECF8091C9018C838091CA01E4
:103C50008D8347CF8091C80180FF03C086958C83F8
:103C600040CF80E0FCCF8091CC01F9CF2091C801FA
:103C70003091C9014091CA015091CB016091CC01B2
:103C80007091CD018091CE019091CF010E943E0AAA
:103C900028CF80E18A8325CF83E08A8387EBFBCE20
:103CA000EA80FB80FE24EF24FE248E010F5F1F4F6D
:103CB0008C80800E912E911CC701875B9F4F8016D0
:103CC000910609F40ECFF7EBEF16F3E0FF0650F480
:103CD0000E94B51FF8018483FFEFEF1AFF0A0F5F00
:103CE0001F4FEACFF8011482F7CF0A811B811027FA
:103CF00001271027CE0101964C01EC80E00EF12E39
:103D0000F11CC801875B9F4F0E151F0509F4E9CE12
:103D1000073BE3E01E0720F4F40164810E94D91FF1
:103D2000FFEF8F1A9F0A0F5F1F4FEBCF0E94EB0828
:103D3000D8CE88E0AFCFEA80FB80FE24EF24FE24BB
:103D40008E010F5F1F4F8C80800E912E911CC7013A
:103D500089960815190509F4C4CE20E2E216F1048B
:103D600050F40E94B51FF8018483FFEFEF1AFF0A99
:103D70000F5F1F4FECCFF8011482F7CF0A811B8130
:103D8000102701271027CE0101964C01EC80E00E90
:103D9000F12EF11CC8018996E016F10609F4A1CEB6
:103DA0000032110520F4F40164810E94D91FFFEF55
:103DB0008F1A9F0A0F5F1F4FEDCFA9BC19BD09B421
:103DC00000FEFDCF8091D8008F7D8093D800809138
:103DD000E00082608093E0008091E00081FDFCCFF4
:103DE0000E941C0EDDCD88E290E00E94B51F1B8270
:103DF0001C821D828E8375CE0024552704C0080EB8
:103E0000591F880F991F009729F076956795B8F389
:103E10007105B9F7802D952F0895AA1BBB1B51E1A1
:103E200007C0AA1FBB1FA617B70710F0A61BB70B2A
:103E3000881F991F5A95A9F780959095BC01CD01CF
:103E40000895EE0FFF1F0590F491E02D0994692766
:103E50009627692778278727782708952F923F92FA
:103E60004F925F926F927F928F929F92AF92BF928A
:103E7000CF92DF92EF92FF920F931F93CF93DF9336
:103E8000CDB7DEB7CA1BDB0B0FB6F894DEBF0FBE93
:103E9000CDBF09942A88398848885F846E847D84E0
:103EA0008C849B84AA84B984C884DF80EE80FD80E2
:103EB0000C811B81AA81B981CE0FD11D0FB6F89458
:103EC000DEBF0FBECDBFED010895002E083090F08B
:103ED000982F872F762F652F542F432F322F22278D
:103EE0000850F4CF220F331F441F551F661F771F42
:103EF000881F991F0A95B2F7002D089597FD109419
:103F0000002E083098F00850232F342F452F562FBD
:103F1000672F782F892F912DF4CF1594979587953A
:103F20007795679557954795379527950A95AAF7F9
:103F30001124002D0895FC014150504030F00190B3
:103F40000616D1F73197CF0108958827992708954C
:103F5000FB01DC0104C08D910190801921F44150D6
:103F60005040C8F7881B990B0895F999FECF92BD70
:103F700081BDF89A992780B50895A6E1B0E044E0A4
:103F800050E00C94FF1FA8E1B0E042E050E00C9438
:103F9000FF1FDC01A40FB51F4150504048F0CB017A
:103FA000840F951F2E910E94DA1F41505040D0F788
:103FB0000895262FF999FECF92BD81BDF89A0197F9
:103FC00000B4021639F01FBA20BD0FB6F894FA9A61
:103FD000F99A0FBE08950396272F0E94DA1F0E94B8
:103FE000D91F252F0E94DA1F242F0C94DA1F019667
:103FF000272F0E94DA1F0C94D91FDC01CB01FC0192
:10400000F999FECF06C0F2BDE1BDF89A319600B431
:104010000D9241505040B8F70895F894FFCF1B0F10
:10402000430FE510430FE510760F970FE51094103E
:10403000A1108212861277127E128A128E129212AA
:1040400090149014CA14CA147515F314F314F314CD
:104050008F15FC150D160D166B13901397139C13EB
:10406000A113A613AB13B013B513BA13BF13C41324
:10407000C713CC13CF13C311C311C311C311C31181
:10408000C311CF124413D712A112A512DB12A91229
:10409000DF12EB12B5123D13B912EF12BD12F3127B
:1040A0001B13C112F7122213C712FD120513AD1212
:1040B000E312B112E712CB12011311132B133B13AE
:1040C0009B12D3124B13491D4D1D891DAF1DBA1DE7
:1040D000C51DC81DC81DC81D541D541D491E4C1E9C
:0C40E000501E751E961E991E9B1EBE1ED3
:1040EC00A0031A089F0313080101818283E200E9EF
:1040FC0000EA00B500B600B700CD008301CC008A01
:10410C000192019401210223022402250226022796
:10411C00022A02B300B4006F0070009F01CB019F14
:10412C0002A00200010202020206060609090909A0
:10413C00090944226D0301E100740033044C046C42
:02414C0004006D
:00000001FF
